:04036C000224000067
:0800030012031E12033580FEFA
:03000B0002012EC1
:10012E00C0E0C0F0C083C082C0D075D000C000C097
:0D013E0001C002C003C004C005C006C00718
:10014B00758A18758CFC0523E52370020522C39470
:10015B00E8E5229403401B7522007523000525E575
:10016B002570020524750C08FBAA247D017F011262
:02017B00029BE5
:10017D00D007D006D005D004D003D002D001D000D6
:0B018D00D0D0D082D083D0F0D0E03280
:10031E005389F0438901758A18758CFCC28DD28C75
:07032E00D2A9D2AFC2B9222F
:06034900C2A58F80D2A7BF
:08034F007F027EEFDEFEDFFC01
:010357002283
:0A035800C2A6120349C2A702034F18
:1002E200CFCDCFCECCCE12004D7C007D0A12004D78
:0402F200ED2430FFC8
:0A02F600D2A6120349C2A702034F6B
:10030000AE07EEFB7A0064017004ED148009EB6423
:0E031000024A7009ED243F4480FF1203582278
:100335007F381203587F0C1203587F061203587F2B
:040345000102035856
:0A036200AC03120300AF040202F620
:0602BF008B268A27892826
:1002C500120300E4FDAB26AA27A9288D82758300B9
:0C02D50012000EFF60061202F60D80E918
:0102E10022FA
:0A026A00EF24FFFDEE34FFFC7F0AD5
:080274008E0D8F0E8C0F8D1012
:10027C007F017E00E4FBEBC39510E50F6480F874FE
:0E028C008098500AAC0DAD0E12003B0B80E8BE
:01029A002241
:04029B008A0A8B0B35
:10029F00120300AA0CEAFF7E00D3940074809480AE
:0F02AF00400D12026AAC0AAD0B1202E21A80E691
:0102BE00221D
:0401E3008B828A83FE
:1001E700120300C3E58364809480400D7F2B1202C5
:1001F700F685831685821780107F2D1202F6C3E4D9
:100207009582F517E49583F516AA15EAFF7E00D3C4
:10021700940074809480400D12026AAC16AD1712D8
:0502270002E21A80E66E
:01022C0022AF
:040198008A1A8B1B19
:10019C00120300AA1CEAD39400748094804037EABE
:1001AC0024FFFDE434FFFC7F107E00120274AC1AB5
:1001BC00AD1BCFCDCFCECCCE12004DEF540FFEC326
:1001CC00940A74809480EE5004243080022437FF0B
:0601DC001202F61A80BFBA
:0101E20022FA
:04022D008A1F8B2079
:10023100120300AA21EAFF7E00D394007480948007
:100241004026EF24FFFDEE34FFFC7F02120274AC66
:100251001FAD20CFCDCFCECCCE12004DEF54012417
:0802610030FF1202F61A80CDF5
:010269002272
:030000000200A259
:0C00A200787FE4F6D8FD7581280200E9A3
:10000E00BB010CE58229F582E5833AF583E02250A7
:10001E0006E92582F8E622BBFE06E92582F8E222F1
:0D002E00E58229F582E5833AF583E493220B
:10003B00EF8DF0A4A8F0CF8CF0A428CE8DF0A42ED9
:02004B00FE2293
:10004D00BC000BBE0029EF8DF084FFADF022E4CC97
:10005D00F875F008EF2FFFEE33FEEC33FCEE9DEC60
:10006D00984005FCEE9DFE0FD5F0E9E4CEFD22EDA6
:10007D00F8F5F0EE8420D21CFEADF075F008EF2FF0
:10008D00FFED33FD4007985006D5F0F222C398FDE1
:05009D000FD5F0EA227E
:1000AE00020003E493A3F8E493A34003F68001F265
:1000BE0008DFF48029E493A3F85407240CC8C33353
:1000CE00C4540F4420C8834004F456800146F6DF22
:1000DE00E4800B010204081020408090036CE47E43
:1000EE00019360BCA3FF543F30E509541FFEE49317
:1000FE00A360010ECF54C025E060A840B8E493A3DE
:10010E00FAE493A3F8E493A3C8C582C8CAC583CA08
:10011E00F0A3C8C582C8CAC583CADFE9DEE780BEC0
:01037000008C
:00000001FF
