:1000F900E4F5087F207E03120153AF081201368F01
:10010900800508E508C3940A40E97508097F207E3F
:1001190003120153AF081201368F801508E508C391
:0D012900940150E97F081201368F8080C3D9
:0A017800C0F9A4B0999282F88090BB
:020136008F092F
:10013800780A7C007D007BFF7A0179787E007F0A4F
:0A0148001200D3740A2509F8E6FF3F
:01015200228A
:0A015300EF1FAC0670011E4C600E99
:0C015D00750902750A27D50AFDD509FABC
:0301690080E82209
:0300000002016C8E
:0C016C00787FE4F6D8FD7581130200F9DD
:10000300E709F608DFFA8046E709F208DFFA803EDF
:1000130088828C83E709F0A3DFFA8032E309F608CC
:10002300DFFA8078E309F208DFFA807088828C8334
:10003300E309F0A3DFFA806489828A83E0A3F608E8
:10004300DFFA805889828A83E0A3F208DFFA804CC2
:1000530080D280FA80C680D4806980F28033801099
:1000630080A680EA809A80A880DA80E280CA803302
:1000730089828A83ECFAE493A3C8C582C8CCC5837A
:10008300CCF0A3C8C582C8CCC583CCDFE9DEE7804A
:100093000D89828A83E493A3F608DFF9ECFAA9F0C9
:1000A300EDFB2289828A83ECFAE0A3C8C582C8CC1F
:1000B300C583CCF0A3C8C582C8CCC583CCDFEADE38
:1000C300E880DB89828A83E493A3F208DFF980CC9A
:1000D30088F0EF60010E4E60C388F0ED2402B40493
:1000E3000050B9F582EB2402B4040050AF2323453A
:0600F3008223900053730C
:00000001FF
