:07042A004B45594E554D00F2
:100323001203E77BFF7A04792A7D017F0112036FB1
:100333001200038F22E52260F7FB7A00750C027D21
:08034300017F0212034B80E868
:0603FB00C2A58F80D2A70D
:080401007F027EEFDEFEDFFC4E
:0104090022D0
:0A041600C2A61203FBC2A7020401F4
:10039200CFCDCFCECCCE1201CB7C007D0A1201CBC9
:0403A200ED2430FF17
:0A03A600D2A61203FBC2A702040155
:1003B000AE07EEFB7A0064017004ED148009EB6473
:0E03C000024A7009ED243F4480FF1204162209
:1003E7007F381204167F0C1204167F061204167F3C
:0403F70001020416E5
:0A042000AC031203B0AF040203A600
:06036F008B088A09890ACF
:100375001203B0E4FDAB08AA09A90A8D82758300B2
:0C03850012018CFF60061203A60D80E937
:010391002249
:0A02F200EF24FFFDEE34FFFC7F0A4D
:0802FC008E0D8F0E8C0F8D108A
:100304007F017E00E4FBEBC39510E50F6480F87475
:0E0314008098500AAC0DAD0E1201B90B80E8B6
:0103220022B8
:04034B008A0A8B0B84
:10034F001203B0AA0CEAFF7E00D39400748094804D
:0F035F00400D1202F2AC0AAD0B1203921A80E6A7
:01036E00226C
:04026B008B828A8375
:10026F001203B0C3E58364809480400D7F2B12038B
:10027F00A685831685821780107F2D1203A6C3E4EF
:10028F009582F517E49583F516AA15EAFF7E00D33C
:10029F00940074809480400D1202F2AC16AD1712C8
:0502AF0003921A80E635
:0102B4002227
:040220008A1A8B1B90
:100224001203B0AA1CEAD39400748094804037EA85
:1002340024FFFDE434FFFC7F107E001202FCAC1AA4
:10024400AD1BCFCDCFCECCCE1201CBEF540FFEC31E
:10025400940A74809480EE5004243080022437FF82
:060264001203A61A80BF80
:01026A002271
:0402B5008A1F8B20F1
:1002B9001203B0AA21EAFF7E00D3940074809480CF
:1002C9004026EF24FFFDEE34FFFC7F021202FCAC56
:1002D9001FAD20CFCDCFCECCCE1201CBEF54012410
:0802E90030FF1203A61A80CDBC
:0102F10022EA
:0A03CE00EF1FAC0670011E4C600E1C
:0C03D800750902750A27D50AFDD509FA3F
:0303E40080E8228C
:10000300E4F50875A0FFC2A320A7137F14FE120313
:10001300CE30A7FD7F147E001203CE75080120A603
:10002300147F147E001203CE30A6FD7F147E0012CF
:1000330003CE75080520A5147F147E001203CE306D
:10004300A5FD7F147E001203CE75080920A4147F3A
:10005300147E001203CE30A4FD7F147E001203CE63
:1000630075080D75A0FFC2A220A7147F147E00128D
:1000730003CE30A7FD7F147E001203CE7508022045
:10008300A6147F147E001203CE30A6FD7F147E00DB
:100093001203CE75080620A5147F147E001203CE2A
:1000A30030A5FD7F147E001203CE75080A20A41428
:1000B3007F147E001203CE30A4FD7F147E00120352
:1000C300CE75080E75A0FFC2A120A7147F147E0071
:1000D3001203CE30A7FD7F147E001203CE750803F2
:1000E30020A6147F147E001203CE30A6FD7F147E5B
:1000F300001203CE75080720A5147F147E00120397
:10010300CE30A5FD7F147E001203CE75080B20A40C
:10011300147F147E001203CE30A4FD7F147E0012E0
:1001230003CE75080F75A0FFC2A020A7147F147E0D
:10013300001203CE30A7FD7F147E001203CE750894
:100143000420A6147F147E001203CE30A6FD7F1474
:100153007E001203CE75080820A5147F147E0012BA
:1001630003CE30A5FD7F147E001203CE75080C204C
:10017300A4147F147E001203CE30A4FD7F147E00EE
:080183001203CE750810AF084D
:01018B002251
:0300000002040AED
:0C040A00787FE4F6D8FD75812202032300
:10018C00BB010CE58229F582E5833AF583E0225028
:10019C0006E92582F8E622BBFE06E92582F8E22272
:0D01AC00E58229F582E5833AF583E493228C
:1001B900EF8DF0A4A8F0CF8CF0A428CE8DF0A42E5A
:0201C900FE2214
:1001CB00BC000BBE0029EF8DF084FFADF022E4CC18
:1001DB00F875F008EF2FFFEE33FEEC33FCEE9DECE1
:1001EB00984005FCEE9DFE0FD5F0E9E4CEFD22ED27
:1001FB00F8F5F0EE8420D21CFEADF075F008EF2F71
:10020B00FFED33FD4007985006D5F0F222C398FD61
:05021B000FD5F0EA22FE
:00000001FF
