:0A018500EF1FAC0670011E4C600E67
:0C018F00750902750A27D50AFDD509FA8A
:03019B0080E822D7
:10019E00750801D3E50894097480948050F2AD0877
:0901AE00AF081200F9050880EA0F
:0A01C3003F065B4F666D7D077F6FFE
:020168008F09FD
:10016A00780A7C007D007BFF7A0179C37E007F0AD2
:0A017A001200D3740A2509F8E6FF0D
:010184002258
:1000F900AE05EF14B40800505490011075F003A434
:10010900C58325F0C5837302012802012C02013041
:10011900020134020138020140020148020150C2C1
:1001290080800EC2808012C2808016C280801AD25E
:1001390080C281C2828016D280C281D282800ED2D0
:1001490080D281C2828006D280D281D282AF061249
:0F01590001688FB07F017E00120185E4F5B022AE
:030000000201B743
:0C01B700787FE4F6D8FD75811302019EEC
:10000300E709F608DFFA8046E709F208DFFA803EDF
:1000130088828C83E709F0A3DFFA8032E309F608CC
:10002300DFFA8078E309F208DFFA807088828C8334
:10003300E309F0A3DFFA806489828A83E0A3F608E8
:10004300DFFA805889828A83E0A3F208DFFA804CC2
:1000530080D280FA80C680D4806980F28033801099
:1000630080A680EA809A80A880DA80E280CA803302
:1000730089828A83ECFAE493A3C8C582C8CCC5837A
:10008300CCF0A3C8C582C8CCC583CCDFE9DEE7804A
:100093000D89828A83E493A3F608DFF9ECFAA9F0C9
:1000A300EDFB2289828A83ECFAE0A3C8C582C8CC1F
:1000B300C583CCF0A3C8C582C8CCC583CCDFEADE38
:1000C300E880DB89828A83E493A3F208DFF980CC9A
:1000D30088F0EF60010E4E60C388F0ED2402B40493
:1000E3000050B9F582EB2402B4040050AF2323453A
:0600F3008223900053730C
:00000001FF
